:100000000C9472000C9493000C9493000C94930045
:100010000C9493000C9493000C9493000C94930014
:100020000C9493000C9493000C9493000C94930004
:100030000C9493000C9493000C9493000C949300F4
:100040000C9493000C9493000C9493000C949300E4
:100050000C9493000C9493000C9493000C949300D4
:100060000C9493000C94BC010C9493000C9493009A
:100070000C9493000C9493000C9493000C949300B4
:100080000C9493000C9493000C9493000C949300A4
:100090000C9493000C9493000C9493000C94930094
:1000A0000C9493000C9493000C9493000C94930084
:1000B0000C9493000C9493000C9493000C94930074
:1000C0000C9493000C9493000C9493000C94930064
:1000D0000C9493000C9493000C9493000C94930054
:1000E0000C94930011241FBECFEFD1E2DEBFCDBF31
:1000F00000E00CBF12E0A0E0B2E0EEEFF4E000E0C0
:100100000BBF02C007900D92A030B107D9F712E0E3
:10011000A0E0B2E001C01D92A130B107E1F70E945A
:1001200076020C947D020C940000E1E2F1E0108272
:100130008FEF8093250191E0909324011092290183
:100140008093280110922B0180932A0110922D0197
:1001500080932C0189EA809320018BE080830895AD
:100160008093280160932A01089592B1907F8F7047
:10017000982B92B908953B9A4398089581B18F6066
:1001800081B982B1807F82B9EAE0F1E08081886143
:100190008083EBE0F1E08081886180830895E1E075
:1001A000F1E0808180678083EAE0F1E08081806C0B
:1001B00080830895259A2D9A0895269A2E9A089557
:1001C000279A2F9A0895E1E8F0E010828FEF80934C
:1001D000850091E0909384001092890080938800BC
:1001E00010928B0080938A0010928D0080938C0077
:1001F00089EA809380008BE08083089510928900C3
:100200008093880010928B0060938A0010928D007A
:1002100040938C00089580EF60E040E00E94FE0073
:100220008FEF9FE7A6E181509040A040E1F700C02A
:100230000000089580E060EF40E00E94FE008FEF34
:100240009FE7A6E181509040A040E1F700C0000088
:10025000089580E060E040EF0E94FE008FEF9FE78E
:10026000A6E181509040A040E1F700C00000089551
:100270008FEF6FEF40E00E94FE008FEF9FE7A6E157
:1002800081509040A040E1F700C00000089580E058
:1002900060E040E00E94FE008FEF9FE7A6E1815002
:1002A0009040A040E1F700C00000089580E48093F2
:1002B0000B01089580E880930B01089580E48093FA
:1002C0000201089580EC80930B01089510920201C1
:1002D00010920B01089586E00E94B500089589E010
:1002E0000E94B500089585E00E94B50008958AE057
:1002F0000E94B500089585E00E94B50008958AE047
:100300000E94B500089584E00E94B500089582E03F
:100310000E94B500089581E00E94B500089588E02C
:100320000E94B500089580E00E94B50008950E94E3
:10033000BE000E94BB000E94CF000E94DA000E9413
:10034000DD000E94E000089586B1886088B90895B4
:1003500086B1877F88B90895E1ECF0E010821092B1
:10036000C00086E08093C2008FE58093C4001092A5
:10037000C50088E9808308951F920F920FB60F92EF
:100380000BB60F9211242F933F934F935F936F936C
:100390007F938F939F93AF93BF93EF93FF93E6EC7D
:1003A000F0E08081809300028083883331F40E94E2
:1003B0006B018FEF6FEF0E94B000809100028233DB
:1003C00011F40E946F0180910002843331F40E9485
:1003D00073018AEA6AEA0E94B000809100028633C3
:1003E00031F40E9477018AEA6AEA0E94B0008091A3
:1003F0000002853309F412B880910002873311F4AA
:100400000E94A40180910002893311F40E94A80186
:1004100080910002823511F40E940B01809100024C
:10042000823711F40E94560180910002823411F447
:100430000E94290180910002823611F40E945E011F
:1004400080910002893511F40E94380180910002E8
:10045000893711F40E94620180910002873411F4FF
:100460000E941A0180910002873611F40E945A01FD
:10047000809100028F3411F40E94470180910002A4
:100480008F3611F40E94660180910002813431F4AC
:100490000E947B018FEF6FEF0E94B00080910002FD
:1004A000843431F40E947F018FEF6FEF0E94B0001F
:1004B000FF91EF91BF91AF919F918F917F916F913C
:1004C0005F914F913F912F910F900BBE0F900FBEF8
:1004D0000F901F901895F8940E9497010E94AC010C
:1004E0000E9495000E94E300789408950E946B0298
:0E04F0000E9447010E946601FFCFF894FFCFE3
:00000001FF
